{
  "contractName": "Coin",
  "abi": [
    {
      "inputs": [],
      "stateMutability": "nonpayable",
      "type": "constructor"
    },
    {
      "anonymous": false,
      "inputs": [
        {
          "indexed": true,
          "internalType": "address",
          "name": "account",
          "type": "address"
        },
        {
          "indexed": true,
          "internalType": "address",
          "name": "operator",
          "type": "address"
        },
        {
          "indexed": false,
          "internalType": "bool",
          "name": "approved",
          "type": "bool"
        }
      ],
      "name": "ApprovalForAll",
      "type": "event"
    },
    {
      "anonymous": false,
      "inputs": [
        {
          "indexed": true,
          "internalType": "address",
          "name": "operator",
          "type": "address"
        },
        {
          "indexed": true,
          "internalType": "address",
          "name": "from",
          "type": "address"
        },
        {
          "indexed": true,
          "internalType": "address",
          "name": "to",
          "type": "address"
        },
        {
          "indexed": false,
          "internalType": "uint256[]",
          "name": "ids",
          "type": "uint256[]"
        },
        {
          "indexed": false,
          "internalType": "uint256[]",
          "name": "values",
          "type": "uint256[]"
        }
      ],
      "name": "TransferBatch",
      "type": "event"
    },
    {
      "anonymous": false,
      "inputs": [
        {
          "indexed": true,
          "internalType": "address",
          "name": "operator",
          "type": "address"
        },
        {
          "indexed": true,
          "internalType": "address",
          "name": "from",
          "type": "address"
        },
        {
          "indexed": true,
          "internalType": "address",
          "name": "to",
          "type": "address"
        },
        {
          "indexed": false,
          "internalType": "uint256",
          "name": "id",
          "type": "uint256"
        },
        {
          "indexed": false,
          "internalType": "uint256",
          "name": "value",
          "type": "uint256"
        }
      ],
      "name": "TransferSingle",
      "type": "event"
    },
    {
      "anonymous": false,
      "inputs": [
        {
          "indexed": false,
          "internalType": "string",
          "name": "value",
          "type": "string"
        },
        {
          "indexed": true,
          "internalType": "uint256",
          "name": "id",
          "type": "uint256"
        }
      ],
      "name": "URI",
      "type": "event"
    },
    {
      "inputs": [],
      "name": "GOLD",
      "outputs": [
        {
          "internalType": "uint256",
          "name": "",
          "type": "uint256"
        }
      ],
      "stateMutability": "view",
      "type": "function"
    },
    {
      "inputs": [],
      "name": "SILVER",
      "outputs": [
        {
          "internalType": "uint256",
          "name": "",
          "type": "uint256"
        }
      ],
      "stateMutability": "view",
      "type": "function"
    },
    {
      "inputs": [
        {
          "internalType": "uint256",
          "name": "",
          "type": "uint256"
        }
      ],
      "name": "_tokenIds",
      "outputs": [
        {
          "internalType": "uint256",
          "name": "",
          "type": "uint256"
        }
      ],
      "stateMutability": "view",
      "type": "function"
    },
    {
      "inputs": [
        {
          "internalType": "address",
          "name": "account",
          "type": "address"
        },
        {
          "internalType": "uint256",
          "name": "id",
          "type": "uint256"
        }
      ],
      "name": "balanceOf",
      "outputs": [
        {
          "internalType": "uint256",
          "name": "",
          "type": "uint256"
        }
      ],
      "stateMutability": "view",
      "type": "function"
    },
    {
      "inputs": [
        {
          "internalType": "address[]",
          "name": "accounts",
          "type": "address[]"
        },
        {
          "internalType": "uint256[]",
          "name": "ids",
          "type": "uint256[]"
        }
      ],
      "name": "balanceOfBatch",
      "outputs": [
        {
          "internalType": "uint256[]",
          "name": "",
          "type": "uint256[]"
        }
      ],
      "stateMutability": "view",
      "type": "function"
    },
    {
      "inputs": [
        {
          "internalType": "address",
          "name": "account",
          "type": "address"
        },
        {
          "internalType": "address",
          "name": "operator",
          "type": "address"
        }
      ],
      "name": "isApprovedForAll",
      "outputs": [
        {
          "internalType": "bool",
          "name": "",
          "type": "bool"
        }
      ],
      "stateMutability": "view",
      "type": "function"
    },
    {
      "inputs": [
        {
          "internalType": "address",
          "name": "from",
          "type": "address"
        },
        {
          "internalType": "address",
          "name": "to",
          "type": "address"
        },
        {
          "internalType": "uint256[]",
          "name": "ids",
          "type": "uint256[]"
        },
        {
          "internalType": "uint256[]",
          "name": "amounts",
          "type": "uint256[]"
        },
        {
          "internalType": "bytes",
          "name": "data",
          "type": "bytes"
        }
      ],
      "name": "safeBatchTransferFrom",
      "outputs": [],
      "stateMutability": "nonpayable",
      "type": "function"
    },
    {
      "inputs": [
        {
          "internalType": "address",
          "name": "from",
          "type": "address"
        },
        {
          "internalType": "address",
          "name": "to",
          "type": "address"
        },
        {
          "internalType": "uint256",
          "name": "id",
          "type": "uint256"
        },
        {
          "internalType": "uint256",
          "name": "amount",
          "type": "uint256"
        },
        {
          "internalType": "bytes",
          "name": "data",
          "type": "bytes"
        }
      ],
      "name": "safeTransferFrom",
      "outputs": [],
      "stateMutability": "nonpayable",
      "type": "function"
    },
    {
      "inputs": [
        {
          "internalType": "address",
          "name": "operator",
          "type": "address"
        },
        {
          "internalType": "bool",
          "name": "approved",
          "type": "bool"
        }
      ],
      "name": "setApprovalForAll",
      "outputs": [],
      "stateMutability": "nonpayable",
      "type": "function"
    },
    {
      "inputs": [
        {
          "internalType": "bytes4",
          "name": "interfaceId",
          "type": "bytes4"
        }
      ],
      "name": "supportsInterface",
      "outputs": [
        {
          "internalType": "bool",
          "name": "",
          "type": "bool"
        }
      ],
      "stateMutability": "view",
      "type": "function"
    },
    {
      "inputs": [
        {
          "internalType": "uint256",
          "name": "_tokenId",
          "type": "uint256"
        }
      ],
      "name": "uri",
      "outputs": [
        {
          "internalType": "string",
          "name": "",
          "type": "string"
        }
      ],
      "stateMutability": "view",
      "type": "function"
    },
    {
      "inputs": [
        {
          "internalType": "uint256",
          "name": "_tokenId",
          "type": "uint256"
        },
        {
          "internalType": "string",
          "name": "_uri",
          "type": "string"
        }
      ],
      "name": "addToken",
      "outputs": [
        {
          "internalType": "bool",
          "name": "",
          "type": "bool"
        }
      ],
      "stateMutability": "nonpayable",
      "type": "function"
    },
    {
      "inputs": [
        {
          "internalType": "uint256",
          "name": "_amount",
          "type": "uint256"
        }
      ],
      "name": "buySilver",
      "outputs": [
        {
          "internalType": "bool",
          "name": "",
          "type": "bool"
        }
      ],
      "stateMutability": "nonpayable",
      "type": "function"
    },
    {
      "inputs": [
        {
          "internalType": "uint256",
          "name": "_amount",
          "type": "uint256"
        }
      ],
      "name": "buyGold",
      "outputs": [
        {
          "internalType": "bool",
          "name": "",
          "type": "bool"
        }
      ],
      "stateMutability": "nonpayable",
      "type": "function"
    },
    {
      "inputs": [
        {
          "internalType": "address",
          "name": "_from",
          "type": "address"
        },
        {
          "internalType": "address",
          "name": "_to",
          "type": "address"
        },
        {
          "internalType": "uint256",
          "name": "_tokenId",
          "type": "uint256"
        },
        {
          "internalType": "uint256",
          "name": "_coinId",
          "type": "uint256"
        },
        {
          "internalType": "uint256",
          "name": "_amount",
          "type": "uint256"
        }
      ],
      "name": "buyToken",
      "outputs": [
        {
          "internalType": "bool",
          "name": "",
          "type": "bool"
        }
      ],
      "stateMutability": "nonpayable",
      "type": "function"
    }
  ],
  "bytecode": "0x60806040523480156200001157600080fd5b506040518060200160405280600081525062000033816200003a60201b60201c565b506200016b565b80600290805190602001906200005292919062000056565b5050565b828054620000649062000135565b90600052602060002090601f016020900481019282620000885760008555620000d4565b82601f10620000a357805160ff1916838001178555620000d4565b82800160010185558215620000d4579182015b82811115620000d3578251825591602001919060010190620000b6565b5b509050620000e39190620000e7565b5090565b5b8082111562000102576000816000905550600101620000e8565b5090565b7f4e487b7100000000000000000000000000000000000000000000000000000000600052602260045260246000fd5b600060028204905060018216806200014e57607f821691505b6020821081141562000165576200016462000106565b5b50919050565b612e6d806200017b6000396000f3fe608060405234801561001057600080fd5b50600436106100f45760003560e01c80636e8ebbfa11610097578063e3e55f0811610066578063e3e55f08146102cf578063e985e9c5146102ed578063f242432a1461031d578063f80860b314610339576100f4565b80636e8ebbfa14610223578063762696b614610253578063960256b614610283578063a22cb465146102b3576100f4565b80632b54c3ce116100d35780632b54c3ce146101895780632eb2c2d6146101b95780633e4bee38146101d55780634e1273f4146101f3576100f4565b8062fdd58e146100f957806301ffc9a7146101295780630e89341c14610159575b600080fd5b610113600480360381019061010e91906119f7565b610369565b6040516101209190611a46565b60405180910390f35b610143600480360381019061013e9190611ab9565b610432565b6040516101509190611b01565b60405180910390f35b610173600480360381019061016e9190611b1c565b610514565b6040516101809190611be2565b60405180910390f35b6101a3600480360381019061019e9190611d39565b6105b9565b6040516101b09190611b01565b60405180910390f35b6101d360048036038101906101ce9190611efe565b610666565b005b6101dd610707565b6040516101ea9190611a46565b60405180910390f35b61020d60048036038101906102089190612090565b61070c565b60405161021a91906121c6565b60405180910390f35b61023d60048036038101906102389190611b1c565b610825565b60405161024a9190611a46565b60405180910390f35b61026d60048036038101906102689190611b1c565b610849565b60405161027a9190611b01565b60405180910390f35b61029d60048036038101906102989190611b1c565b6108c3565b6040516102aa9190611b01565b60405180910390f35b6102cd60048036038101906102c89190612214565b61093d565b005b6102d7610953565b6040516102e49190611a46565b60405180910390f35b61030760048036038101906103029190612254565b610958565b6040516103149190611b01565b60405180910390f35b61033760048036038101906103329190612294565b6109ec565b005b610353600480360381019061034e919061232b565b610a8d565b6040516103609190611b01565b60405180910390f35b60008073ffffffffffffffffffffffffffffffffffffffff168373ffffffffffffffffffffffffffffffffffffffff1614156103da576040517f08c379a00000000000000000000000000000000000000000000000000000000081526004016103d190612418565b60405180910390fd5b60008083815260200190815260200160002060008473ffffffffffffffffffffffffffffffffffffffff1673ffffffffffffffffffffffffffffffffffffffff16815260200190815260200160002054905092915050565b60007fd9b67a26000000000000000000000000000000000000000000000000000000007bffffffffffffffffffffffffffffffffffffffffffffffffffffffff1916827bffffffffffffffffffffffffffffffffffffffffffffffffffffffff191614806104fd57507f0e89341c000000000000000000000000000000000000000000000000000000007bffffffffffffffffffffffffffffffffffffffffffffffffffffffff1916827bffffffffffffffffffffffffffffffffffffffffffffffffffffffff1916145b8061050d575061050c82610ad5565b5b9050919050565b606060056000838152602001908152602001600020805461053490612467565b80601f016020809104026020016040519081016040528092919081815260200182805461056090612467565b80156105ad5780601f10610582576101008083540402835291602001916105ad565b820191906000526020600020905b81548152906001019060200180831161059057829003601f168201915b50505050509050919050565b60006105d73384600160405180602001604052806000815250610b3f565b6003839080600181540180825580915050600190039060005260206000200160009091909190915055336004600085815260200190815260200160002060006101000a81548173ffffffffffffffffffffffffffffffffffffffff021916908373ffffffffffffffffffffffffffffffffffffffff16021790555061065c8383610cf0565b6001905092915050565b61066e610d1c565b73ffffffffffffffffffffffffffffffffffffffff168573ffffffffffffffffffffffffffffffffffffffff1614806106b457506106b3856106ae610d1c565b610958565b5b6106f3576040517f08c379a00000000000000000000000000000000000000000000000000000000081526004016106ea9061250b565b60405180910390fd5b6107008585858585610d24565b5050505050565b600081565b60608151835114610752576040517f08c379a00000000000000000000000000000000000000000000000000000000081526004016107499061259d565b60405180910390fd5b6000835167ffffffffffffffff81111561076f5761076e611c0e565b5b60405190808252806020026020018201604052801561079d5781602001602082028036833780820191505090505b50905060005b845181101561081a576107ea8582815181106107c2576107c16125bd565b5b60200260200101518583815181106107dd576107dc6125bd565b5b6020026020010151610369565b8282815181106107fd576107fc6125bd565b5b602002602001018181525050806108139061261b565b90506107a3565b508091505092915050565b6003818154811061083557600080fd5b906000526020600020016000915090505481565b60003073ffffffffffffffffffffffffffffffffffffffff166108fc6064846108729190612693565b9081150290604051600060405180830381858888f1935050505015801561089d573d6000803e3d6000fd5b506108ba3360018460405180602001604052806000815250610b3f565b60019050919050565b60003073ffffffffffffffffffffffffffffffffffffffff166108fc600a846108ec9190612693565b9081150290604051600060405180830381858888f19350505050158015610917573d6000803e3d6000fd5b506109343360008460405180602001604052806000815250610b3f565b60019050919050565b61094f610948610d1c565b8383611046565b5050565b600181565b6000600160008473ffffffffffffffffffffffffffffffffffffffff1673ffffffffffffffffffffffffffffffffffffffff16815260200190815260200160002060008373ffffffffffffffffffffffffffffffffffffffff1673ffffffffffffffffffffffffffffffffffffffff16815260200190815260200160002060009054906101000a900460ff16905092915050565b6109f4610d1c565b73ffffffffffffffffffffffffffffffffffffffff168573ffffffffffffffffffffffffffffffffffffffff161480610a3a5750610a3985610a34610d1c565b610958565b5b610a79576040517f08c379a0000000000000000000000000000000000000000000000000000000008152600401610a7090612736565b60405180910390fd5b610a8685858585856111b3565b5050505050565b6000610aac8686866001604051806020016040528060008152506111b3565b610ac885878585604051806020016040528060008152506111b3565b6001905095945050505050565b60007f01ffc9a7000000000000000000000000000000000000000000000000000000007bffffffffffffffffffffffffffffffffffffffffffffffffffffffff1916827bffffffffffffffffffffffffffffffffffffffffffffffffffffffff1916149050919050565b600073ffffffffffffffffffffffffffffffffffffffff168473ffffffffffffffffffffffffffffffffffffffff161415610baf576040517f08c379a0000000000000000000000000000000000000000000000000000000008152600401610ba6906127c8565b60405180910390fd5b6000610bb9610d1c565b90506000610bc68561144f565b90506000610bd38561144f565b9050610be4836000898585896114c9565b8460008088815260200190815260200160002060008973ffffffffffffffffffffffffffffffffffffffff1673ffffffffffffffffffffffffffffffffffffffff1681526020019081526020016000206000828254610c4391906127e8565b925050819055508673ffffffffffffffffffffffffffffffffffffffff16600073ffffffffffffffffffffffffffffffffffffffff168473ffffffffffffffffffffffffffffffffffffffff167fc3d58168c5ae7397731d063d5bbf3d657854427343f4c083240f7aacaa2d0f628989604051610cc192919061283e565b60405180910390a4610cd8836000898585896114d1565b610ce7836000898989896114d9565b50505050505050565b80600560008481526020019081526020016000209080519060200190610d179291906118ac565b505050565b600033905090565b8151835114610d68576040517f08c379a0000000000000000000000000000000000000000000000000000000008152600401610d5f906128d9565b60405180910390fd5b600073ffffffffffffffffffffffffffffffffffffffff168473ffffffffffffffffffffffffffffffffffffffff161415610dd8576040517f08c379a0000000000000000000000000000000000000000000000000000000008152600401610dcf9061296b565b60405180910390fd5b6000610de2610d1c565b9050610df28187878787876114c9565b60005b8451811015610fa3576000858281518110610e1357610e126125bd565b5b602002602001015190506000858381518110610e3257610e316125bd565b5b60200260200101519050600080600084815260200190815260200160002060008b73ffffffffffffffffffffffffffffffffffffffff1673ffffffffffffffffffffffffffffffffffffffff16815260200190815260200160002054905081811015610ed3576040517f08c379a0000000000000000000000000000000000000000000000000000000008152600401610eca906129fd565b60405180910390fd5b81810360008085815260200190815260200160002060008c73ffffffffffffffffffffffffffffffffffffffff1673ffffffffffffffffffffffffffffffffffffffff168152602001908152602001600020819055508160008085815260200190815260200160002060008b73ffffffffffffffffffffffffffffffffffffffff1673ffffffffffffffffffffffffffffffffffffffff1681526020019081526020016000206000828254610f8891906127e8565b9250508190555050505080610f9c9061261b565b9050610df5565b508473ffffffffffffffffffffffffffffffffffffffff168673ffffffffffffffffffffffffffffffffffffffff168273ffffffffffffffffffffffffffffffffffffffff167f4a39dc06d4c0dbc64b70af90fd698a233a518aa5d07e595d983b8c0526c8f7fb878760405161101a929190612a1d565b60405180910390a46110308187878787876114d1565b61103e8187878787876116b1565b505050505050565b8173ffffffffffffffffffffffffffffffffffffffff168373ffffffffffffffffffffffffffffffffffffffff1614156110b5576040517f08c379a00000000000000000000000000000000000000000000000000000000081526004016110ac90612ac6565b60405180910390fd5b80600160008573ffffffffffffffffffffffffffffffffffffffff1673ffffffffffffffffffffffffffffffffffffffff16815260200190815260200160002060008473ffffffffffffffffffffffffffffffffffffffff1673ffffffffffffffffffffffffffffffffffffffff16815260200190815260200160002060006101000a81548160ff0219169083151502179055508173ffffffffffffffffffffffffffffffffffffffff168373ffffffffffffffffffffffffffffffffffffffff167f17307eab39ab6107e8899845ad3d59bd9653f200f220920489ca2b5937696c31836040516111a69190611b01565b60405180910390a3505050565b600073ffffffffffffffffffffffffffffffffffffffff168473ffffffffffffffffffffffffffffffffffffffff161415611223576040517f08c379a000000000000000000000000000000000000000000000000000000000815260040161121a9061296b565b60405180910390fd5b600061122d610d1c565b9050600061123a8561144f565b905060006112478561144f565b90506112578389898585896114c9565b600080600088815260200190815260200160002060008a73ffffffffffffffffffffffffffffffffffffffff1673ffffffffffffffffffffffffffffffffffffffff168152602001908152602001600020549050858110156112ee576040517f08c379a00000000000000000000000000000000000000000000000000000000081526004016112e5906129fd565b60405180910390fd5b85810360008089815260200190815260200160002060008b73ffffffffffffffffffffffffffffffffffffffff1673ffffffffffffffffffffffffffffffffffffffff168152602001908152602001600020819055508560008089815260200190815260200160002060008a73ffffffffffffffffffffffffffffffffffffffff1673ffffffffffffffffffffffffffffffffffffffff16815260200190815260200160002060008282546113a391906127e8565b925050819055508773ffffffffffffffffffffffffffffffffffffffff168973ffffffffffffffffffffffffffffffffffffffff168573ffffffffffffffffffffffffffffffffffffffff167fc3d58168c5ae7397731d063d5bbf3d657854427343f4c083240f7aacaa2d0f628a8a60405161142092919061283e565b60405180910390a4611436848a8a86868a6114d1565b611444848a8a8a8a8a6114d9565b505050505050505050565b60606000600167ffffffffffffffff81111561146e5761146d611c0e565b5b60405190808252806020026020018201604052801561149c5781602001602082028036833780820191505090505b50905082816000815181106114b4576114b36125bd565b5b60200260200101818152505080915050919050565b505050505050565b505050505050565b6114f88473ffffffffffffffffffffffffffffffffffffffff16611889565b156116a9578373ffffffffffffffffffffffffffffffffffffffff1663f23a6e6187878686866040518663ffffffff1660e01b815260040161153e959493929190612b4a565b6020604051808303816000875af192505050801561157a57506040513d601f19601f820116820180604052508101906115779190612bb9565b60015b61162057611586612bf3565b806308c379a014156115e3575061159b612c15565b806115a657506115e5565b806040517f08c379a00000000000000000000000000000000000000000000000000000000081526004016115da9190611be2565b60405180910390fd5b505b6040517f08c379a000000000000000000000000000000000000000000000000000000000815260040161161790612d1d565b60405180910390fd5b63f23a6e6160e01b7bffffffffffffffffffffffffffffffffffffffffffffffffffffffff1916817bffffffffffffffffffffffffffffffffffffffffffffffffffffffff1916146116a7576040517f08c379a000000000000000000000000000000000000000000000000000000000815260040161169e90612daf565b60405180910390fd5b505b505050505050565b6116d08473ffffffffffffffffffffffffffffffffffffffff16611889565b15611881578373ffffffffffffffffffffffffffffffffffffffff1663bc197c8187878686866040518663ffffffff1660e01b8152600401611716959493929190612dcf565b6020604051808303816000875af192505050801561175257506040513d601f19601f8201168201806040525081019061174f9190612bb9565b60015b6117f85761175e612bf3565b806308c379a014156117bb5750611773612c15565b8061177e57506117bd565b806040517f08c379a00000000000000000000000000000000000000000000000000000000081526004016117b29190611be2565b60405180910390fd5b505b6040517f08c379a00000000000000000000000000000000000000000000000000000000081526004016117ef90612d1d565b60405180910390fd5b63bc197c8160e01b7bffffffffffffffffffffffffffffffffffffffffffffffffffffffff1916817bffffffffffffffffffffffffffffffffffffffffffffffffffffffff19161461187f576040517f08c379a000000000000000000000000000000000000000000000000000000000815260040161187690612daf565b60405180910390fd5b505b505050505050565b6000808273ffffffffffffffffffffffffffffffffffffffff163b119050919050565b8280546118b890612467565b90600052602060002090601f0160209004810192826118da5760008555611921565b82601f106118f357805160ff1916838001178555611921565b82800160010185558215611921579182015b82811115611920578251825591602001919060010190611905565b5b50905061192e9190611932565b5090565b5b8082111561194b576000816000905550600101611933565b5090565b6000604051905090565b600080fd5b600080fd5b600073ffffffffffffffffffffffffffffffffffffffff82169050919050565b600061198e82611963565b9050919050565b61199e81611983565b81146119a957600080fd5b50565b6000813590506119bb81611995565b92915050565b6000819050919050565b6119d4816119c1565b81146119df57600080fd5b50565b6000813590506119f1816119cb565b92915050565b60008060408385031215611a0e57611a0d611959565b5b6000611a1c858286016119ac565b9250506020611a2d858286016119e2565b9150509250929050565b611a40816119c1565b82525050565b6000602082019050611a5b6000830184611a37565b92915050565b60007fffffffff0000000000000000000000000000000000000000000000000000000082169050919050565b611a9681611a61565b8114611aa157600080fd5b50565b600081359050611ab381611a8d565b92915050565b600060208284031215611acf57611ace611959565b5b6000611add84828501611aa4565b91505092915050565b60008115159050919050565b611afb81611ae6565b82525050565b6000602082019050611b166000830184611af2565b92915050565b600060208284031215611b3257611b31611959565b5b6000611b40848285016119e2565b91505092915050565b600081519050919050565b600082825260208201905092915050565b60005b83811015611b83578082015181840152602081019050611b68565b83811115611b92576000848401525b50505050565b6000601f19601f8301169050919050565b6000611bb482611b49565b611bbe8185611b54565b9350611bce818560208601611b65565b611bd781611b98565b840191505092915050565b60006020820190508181036000830152611bfc8184611ba9565b905092915050565b600080fd5b600080fd5b7f4e487b7100000000000000000000000000000000000000000000000000000000600052604160045260246000fd5b611c4682611b98565b810181811067ffffffffffffffff82111715611c6557611c64611c0e565b5b80604052505050565b6000611c7861194f565b9050611c848282611c3d565b919050565b600067ffffffffffffffff821115611ca457611ca3611c0e565b5b611cad82611b98565b9050602081019050919050565b82818337600083830152505050565b6000611cdc611cd784611c89565b611c6e565b905082815260208101848484011115611cf857611cf7611c09565b5b611d03848285611cba565b509392505050565b600082601f830112611d2057611d1f611c04565b5b8135611d30848260208601611cc9565b91505092915050565b60008060408385031215611d5057611d4f611959565b5b6000611d5e858286016119e2565b925050602083013567ffffffffffffffff811115611d7f57611d7e61195e565b5b611d8b85828601611d0b565b9150509250929050565b600067ffffffffffffffff821115611db057611daf611c0e565b5b602082029050602081019050919050565b600080fd5b6000611dd9611dd484611d95565b611c6e565b90508083825260208201905060208402830185811115611dfc57611dfb611dc1565b5b835b81811015611e255780611e1188826119e2565b845260208401935050602081019050611dfe565b5050509392505050565b600082601f830112611e4457611e43611c04565b5b8135611e54848260208601611dc6565b91505092915050565b600067ffffffffffffffff821115611e7857611e77611c0e565b5b611e8182611b98565b9050602081019050919050565b6000611ea1611e9c84611e5d565b611c6e565b905082815260208101848484011115611ebd57611ebc611c09565b5b611ec8848285611cba565b509392505050565b600082601f830112611ee557611ee4611c04565b5b8135611ef5848260208601611e8e565b91505092915050565b600080600080600060a08688031215611f1a57611f19611959565b5b6000611f28888289016119ac565b9550506020611f39888289016119ac565b945050604086013567ffffffffffffffff811115611f5a57611f5961195e565b5b611f6688828901611e2f565b935050606086013567ffffffffffffffff811115611f8757611f8661195e565b5b611f9388828901611e2f565b925050608086013567ffffffffffffffff811115611fb457611fb361195e565b5b611fc088828901611ed0565b9150509295509295909350565b600067ffffffffffffffff821115611fe857611fe7611c0e565b5b602082029050602081019050919050565b600061200c61200784611fcd565b611c6e565b9050808382526020820190506020840283018581111561202f5761202e611dc1565b5b835b81811015612058578061204488826119ac565b845260208401935050602081019050612031565b5050509392505050565b600082601f83011261207757612076611c04565b5b8135612087848260208601611ff9565b91505092915050565b600080604083850312156120a7576120a6611959565b5b600083013567ffffffffffffffff8111156120c5576120c461195e565b5b6120d185828601612062565b925050602083013567ffffffffffffffff8111156120f2576120f161195e565b5b6120fe85828601611e2f565b9150509250929050565b600081519050919050565b600082825260208201905092915050565b6000819050602082019050919050565b61213d816119c1565b82525050565b600061214f8383612134565b60208301905092915050565b6000602082019050919050565b600061217382612108565b61217d8185612113565b935061218883612124565b8060005b838110156121b95781516121a08882612143565b97506121ab8361215b565b92505060018101905061218c565b5085935050505092915050565b600060208201905081810360008301526121e08184612168565b905092915050565b6121f181611ae6565b81146121fc57600080fd5b50565b60008135905061220e816121e8565b92915050565b6000806040838503121561222b5761222a611959565b5b6000612239858286016119ac565b925050602061224a858286016121ff565b9150509250929050565b6000806040838503121561226b5761226a611959565b5b6000612279858286016119ac565b925050602061228a858286016119ac565b9150509250929050565b600080600080600060a086880312156122b0576122af611959565b5b60006122be888289016119ac565b95505060206122cf888289016119ac565b94505060406122e0888289016119e2565b93505060606122f1888289016119e2565b925050608086013567ffffffffffffffff8111156123125761231161195e565b5b61231e88828901611ed0565b9150509295509295909350565b600080600080600060a0868803121561234757612346611959565b5b6000612355888289016119ac565b9550506020612366888289016119ac565b9450506040612377888289016119e2565b9350506060612388888289016119e2565b9250506080612399888289016119e2565b9150509295509295909350565b7f455243313135353a2062616c616e636520717565727920666f7220746865207a60008201527f65726f2061646472657373000000000000000000000000000000000000000000602082015250565b6000612402602b83611b54565b915061240d826123a6565b604082019050919050565b60006020820190508181036000830152612431816123f5565b9050919050565b7f4e487b7100000000000000000000000000000000000000000000000000000000600052602260045260246000fd5b6000600282049050600182168061247f57607f821691505b6020821081141561249357612492612438565b5b50919050565b7f455243313135353a207472616e736665722063616c6c6572206973206e6f742060008201527f6f776e6572206e6f7220617070726f7665640000000000000000000000000000602082015250565b60006124f5603283611b54565b915061250082612499565b604082019050919050565b60006020820190508181036000830152612524816124e8565b9050919050565b7f455243313135353a206163636f756e747320616e6420696473206c656e67746860008201527f206d69736d617463680000000000000000000000000000000000000000000000602082015250565b6000612587602983611b54565b91506125928261252b565b604082019050919050565b600060208201905081810360008301526125b68161257a565b9050919050565b7f4e487b7100000000000000000000000000000000000000000000000000000000600052603260045260246000fd5b7f4e487b7100000000000000000000000000000000000000000000000000000000600052601160045260246000fd5b6000612626826119c1565b91507fffffffffffffffffffffffffffffffffffffffffffffffffffffffffffffffff821415612659576126586125ec565b5b600182019050919050565b7f4e487b7100000000000000000000000000000000000000000000000000000000600052601260045260246000fd5b600061269e826119c1565b91506126a9836119c1565b9250826126b9576126b8612664565b5b828204905092915050565b7f455243313135353a2063616c6c6572206973206e6f74206f776e6572206e6f7260008201527f20617070726f7665640000000000000000000000000000000000000000000000602082015250565b6000612720602983611b54565b915061272b826126c4565b604082019050919050565b6000602082019050818103600083015261274f81612713565b9050919050565b7f455243313135353a206d696e7420746f20746865207a65726f2061646472657360008201527f7300000000000000000000000000000000000000000000000000000000000000602082015250565b60006127b2602183611b54565b91506127bd82612756565b604082019050919050565b600060208201905081810360008301526127e1816127a5565b9050919050565b60006127f3826119c1565b91506127fe836119c1565b9250827fffffffffffffffffffffffffffffffffffffffffffffffffffffffffffffffff03821115612833576128326125ec565b5b828201905092915050565b60006040820190506128536000830185611a37565b6128606020830184611a37565b9392505050565b7f455243313135353a2069647320616e6420616d6f756e7473206c656e6774682060008201527f6d69736d61746368000000000000000000000000000000000000000000000000602082015250565b60006128c3602883611b54565b91506128ce82612867565b604082019050919050565b600060208201905081810360008301526128f2816128b6565b9050919050565b7f455243313135353a207472616e7366657220746f20746865207a65726f20616460008201527f6472657373000000000000000000000000000000000000000000000000000000602082015250565b6000612955602583611b54565b9150612960826128f9565b604082019050919050565b6000602082019050818103600083015261298481612948565b9050919050565b7f455243313135353a20696e73756666696369656e742062616c616e636520666f60008201527f72207472616e7366657200000000000000000000000000000000000000000000602082015250565b60006129e7602a83611b54565b91506129f28261298b565b604082019050919050565b60006020820190508181036000830152612a16816129da565b9050919050565b60006040820190508181036000830152612a378185612168565b90508181036020830152612a4b8184612168565b90509392505050565b7f455243313135353a2073657474696e6720617070726f76616c2073746174757360008201527f20666f722073656c660000000000000000000000000000000000000000000000602082015250565b6000612ab0602983611b54565b9150612abb82612a54565b604082019050919050565b60006020820190508181036000830152612adf81612aa3565b9050919050565b612aef81611983565b82525050565b600081519050919050565b600082825260208201905092915050565b6000612b1c82612af5565b612b268185612b00565b9350612b36818560208601611b65565b612b3f81611b98565b840191505092915050565b600060a082019050612b5f6000830188612ae6565b612b6c6020830187612ae6565b612b796040830186611a37565b612b866060830185611a37565b8181036080830152612b988184612b11565b90509695505050505050565b600081519050612bb381611a8d565b92915050565b600060208284031215612bcf57612bce611959565b5b6000612bdd84828501612ba4565b91505092915050565b60008160e01c9050919050565b600060033d1115612c125760046000803e612c0f600051612be6565b90505b90565b600060443d1015612c2557612ca8565b612c2d61194f565b60043d036004823e80513d602482011167ffffffffffffffff82111715612c55575050612ca8565b808201805167ffffffffffffffff811115612c735750505050612ca8565b80602083010160043d038501811115612c90575050505050612ca8565b612c9f82602001850186611c3d565b82955050505050505b90565b7f455243313135353a207472616e7366657220746f206e6f6e204552433131353560008201527f526563656976657220696d706c656d656e746572000000000000000000000000602082015250565b6000612d07603483611b54565b9150612d1282612cab565b604082019050919050565b60006020820190508181036000830152612d3681612cfa565b9050919050565b7f455243313135353a204552433131353552656365697665722072656a6563746560008201527f6420746f6b656e73000000000000000000000000000000000000000000000000602082015250565b6000612d99602883611b54565b9150612da482612d3d565b604082019050919050565b60006020820190508181036000830152612dc881612d8c565b9050919050565b600060a082019050612de46000830188612ae6565b612df16020830187612ae6565b8181036040830152612e038186612168565b90508181036060830152612e178185612168565b90508181036080830152612e2b8184612b11565b9050969550505050505056fea2646970667358221220abc604166ffc2e5d14fcd293511826c3affec72f36afff2c431f7137b48f47c664736f6c634300080a0033",
  "immutableReferences": {},
  "source": "// SPDX-License-Identifier: MIT\npragma solidity ^0.8.0;\n\nimport \"@openzeppelin/contracts/token/ERC1155/ERC1155.sol\";\n\ncontract Coin is ERC1155 {\n  uint256 public constant GOLD = 0;\n  uint256 public constant SILVER = 1;\n  \n  uint256[] public _tokenIds;\n  mapping(uint256 => address) _tokenOwners;\n  mapping(uint256 => string) _tokenURIs;\n\n  constructor() ERC1155(\"\"){}\n\n  function uri(uint256 _tokenId) public view override returns (string memory) {\n    return _tokenURIs[_tokenId];\n  }\n\n  function addToken(uint256 _tokenId, string memory _uri) public returns(bool){\n    _mint(msg.sender, _tokenId, 1, \"\");\n    _tokenIds.push(_tokenId);\n    _tokenOwners[_tokenId] = msg.sender;\n    _setURI(_tokenId, _uri);\n    return true;\n  }\n\n  function _setURI(uint256 _tokenId, string memory _uri) internal{\n    _tokenURIs[_tokenId] = _uri;\n  }\n\n  function buySilver(uint256 _amount) public returns(bool){\n    payable(address(this)).transfer(_amount/100);\n    _mint(msg.sender, SILVER, _amount, \"\");\n    return true;\n  }\n\n  function buyGold(uint256 _amount) public returns(bool){\n    payable(address(this)).transfer(_amount/10);\n    _mint(msg.sender, GOLD, _amount, \"\");\n    return true;\n  }\n\n  function buyToken(address _from, address _to, uint256 _tokenId, uint256 _coinId, uint256 _amount) public returns(bool){\n    _safeTransferFrom(_from, _to, _tokenId, 1, \"\");\n    _safeTransferFrom(_to, _from, _coinId, _amount, \"\");\n    return true;\n  }\n\n}",
  "sourcePath": "/home/lakshya/Desktop/Projects/Blockchain/crypto_nfts/smart-contract/contracts/Coin.sol",
  "compiler": {
    "name": "solc",
    "version": "0.8.10+commit.fc410830.Emscripten.clang"
  },
  "schemaVersion": "3.4.4",
  "updatedAt": "2022-05-19T21:29:20.558Z",
  "devdoc": {
    "kind": "dev",
    "methods": {
      "balanceOf(address,uint256)": {
        "details": "See {IERC1155-balanceOf}. Requirements: - `account` cannot be the zero address."
      },
      "balanceOfBatch(address[],uint256[])": {
        "details": "See {IERC1155-balanceOfBatch}. Requirements: - `accounts` and `ids` must have the same length."
      },
      "isApprovedForAll(address,address)": {
        "details": "See {IERC1155-isApprovedForAll}."
      },
      "safeBatchTransferFrom(address,address,uint256[],uint256[],bytes)": {
        "details": "See {IERC1155-safeBatchTransferFrom}."
      },
      "safeTransferFrom(address,address,uint256,uint256,bytes)": {
        "details": "See {IERC1155-safeTransferFrom}."
      },
      "setApprovalForAll(address,bool)": {
        "details": "See {IERC1155-setApprovalForAll}."
      },
      "supportsInterface(bytes4)": {
        "details": "See {IERC165-supportsInterface}."
      }
    },
    "version": 1
  },
  "userdoc": {
    "kind": "user",
    "methods": {},
    "version": 1
  }
}