{
  "contractName": "Coin",
  "abi": [
    {
      "inputs": [],
      "stateMutability": "nonpayable",
      "type": "constructor"
    },
    {
      "anonymous": false,
      "inputs": [
        {
          "indexed": true,
          "internalType": "address",
          "name": "account",
          "type": "address"
        },
        {
          "indexed": true,
          "internalType": "address",
          "name": "operator",
          "type": "address"
        },
        {
          "indexed": false,
          "internalType": "bool",
          "name": "approved",
          "type": "bool"
        }
      ],
      "name": "ApprovalForAll",
      "type": "event"
    },
    {
      "anonymous": false,
      "inputs": [
        {
          "indexed": true,
          "internalType": "address",
          "name": "operator",
          "type": "address"
        },
        {
          "indexed": true,
          "internalType": "address",
          "name": "from",
          "type": "address"
        },
        {
          "indexed": true,
          "internalType": "address",
          "name": "to",
          "type": "address"
        },
        {
          "indexed": false,
          "internalType": "uint256[]",
          "name": "ids",
          "type": "uint256[]"
        },
        {
          "indexed": false,
          "internalType": "uint256[]",
          "name": "values",
          "type": "uint256[]"
        }
      ],
      "name": "TransferBatch",
      "type": "event"
    },
    {
      "anonymous": false,
      "inputs": [
        {
          "indexed": true,
          "internalType": "address",
          "name": "operator",
          "type": "address"
        },
        {
          "indexed": true,
          "internalType": "address",
          "name": "from",
          "type": "address"
        },
        {
          "indexed": true,
          "internalType": "address",
          "name": "to",
          "type": "address"
        },
        {
          "indexed": false,
          "internalType": "uint256",
          "name": "id",
          "type": "uint256"
        },
        {
          "indexed": false,
          "internalType": "uint256",
          "name": "value",
          "type": "uint256"
        }
      ],
      "name": "TransferSingle",
      "type": "event"
    },
    {
      "anonymous": false,
      "inputs": [
        {
          "indexed": false,
          "internalType": "string",
          "name": "value",
          "type": "string"
        },
        {
          "indexed": true,
          "internalType": "uint256",
          "name": "id",
          "type": "uint256"
        }
      ],
      "name": "URI",
      "type": "event"
    },
    {
      "inputs": [],
      "name": "GOLD",
      "outputs": [
        {
          "internalType": "uint256",
          "name": "",
          "type": "uint256"
        }
      ],
      "stateMutability": "view",
      "type": "function",
      "constant": true
    },
    {
      "inputs": [],
      "name": "SILVER",
      "outputs": [
        {
          "internalType": "uint256",
          "name": "",
          "type": "uint256"
        }
      ],
      "stateMutability": "view",
      "type": "function",
      "constant": true
    },
    {
      "inputs": [
        {
          "internalType": "uint256",
          "name": "",
          "type": "uint256"
        }
      ],
      "name": "_tokenIds",
      "outputs": [
        {
          "internalType": "uint256",
          "name": "",
          "type": "uint256"
        }
      ],
      "stateMutability": "view",
      "type": "function",
      "constant": true
    },
    {
      "inputs": [
        {
          "internalType": "address",
          "name": "account",
          "type": "address"
        },
        {
          "internalType": "uint256",
          "name": "id",
          "type": "uint256"
        }
      ],
      "name": "balanceOf",
      "outputs": [
        {
          "internalType": "uint256",
          "name": "",
          "type": "uint256"
        }
      ],
      "stateMutability": "view",
      "type": "function",
      "constant": true
    },
    {
      "inputs": [
        {
          "internalType": "address[]",
          "name": "accounts",
          "type": "address[]"
        },
        {
          "internalType": "uint256[]",
          "name": "ids",
          "type": "uint256[]"
        }
      ],
      "name": "balanceOfBatch",
      "outputs": [
        {
          "internalType": "uint256[]",
          "name": "",
          "type": "uint256[]"
        }
      ],
      "stateMutability": "view",
      "type": "function",
      "constant": true
    },
    {
      "inputs": [
        {
          "internalType": "address",
          "name": "account",
          "type": "address"
        },
        {
          "internalType": "address",
          "name": "operator",
          "type": "address"
        }
      ],
      "name": "isApprovedForAll",
      "outputs": [
        {
          "internalType": "bool",
          "name": "",
          "type": "bool"
        }
      ],
      "stateMutability": "view",
      "type": "function",
      "constant": true
    },
    {
      "inputs": [
        {
          "internalType": "address",
          "name": "from",
          "type": "address"
        },
        {
          "internalType": "address",
          "name": "to",
          "type": "address"
        },
        {
          "internalType": "uint256[]",
          "name": "ids",
          "type": "uint256[]"
        },
        {
          "internalType": "uint256[]",
          "name": "amounts",
          "type": "uint256[]"
        },
        {
          "internalType": "bytes",
          "name": "data",
          "type": "bytes"
        }
      ],
      "name": "safeBatchTransferFrom",
      "outputs": [],
      "stateMutability": "nonpayable",
      "type": "function"
    },
    {
      "inputs": [
        {
          "internalType": "address",
          "name": "from",
          "type": "address"
        },
        {
          "internalType": "address",
          "name": "to",
          "type": "address"
        },
        {
          "internalType": "uint256",
          "name": "id",
          "type": "uint256"
        },
        {
          "internalType": "uint256",
          "name": "amount",
          "type": "uint256"
        },
        {
          "internalType": "bytes",
          "name": "data",
          "type": "bytes"
        }
      ],
      "name": "safeTransferFrom",
      "outputs": [],
      "stateMutability": "nonpayable",
      "type": "function"
    },
    {
      "inputs": [
        {
          "internalType": "address",
          "name": "operator",
          "type": "address"
        },
        {
          "internalType": "bool",
          "name": "approved",
          "type": "bool"
        }
      ],
      "name": "setApprovalForAll",
      "outputs": [],
      "stateMutability": "nonpayable",
      "type": "function"
    },
    {
      "inputs": [
        {
          "internalType": "bytes4",
          "name": "interfaceId",
          "type": "bytes4"
        }
      ],
      "name": "supportsInterface",
      "outputs": [
        {
          "internalType": "bool",
          "name": "",
          "type": "bool"
        }
      ],
      "stateMutability": "view",
      "type": "function",
      "constant": true
    },
    {
      "inputs": [
        {
          "internalType": "uint256",
          "name": "_tokenId",
          "type": "uint256"
        }
      ],
      "name": "uri",
      "outputs": [
        {
          "internalType": "string",
          "name": "",
          "type": "string"
        }
      ],
      "stateMutability": "view",
      "type": "function",
      "constant": true
    },
    {
      "inputs": [
        {
          "internalType": "uint256",
          "name": "_tokenId",
          "type": "uint256"
        },
        {
          "internalType": "string",
          "name": "_uri",
          "type": "string"
        }
      ],
      "name": "addToken",
      "outputs": [
        {
          "internalType": "bool",
          "name": "",
          "type": "bool"
        }
      ],
      "stateMutability": "nonpayable",
      "type": "function"
    },
    {
      "inputs": [
        {
          "internalType": "uint256",
          "name": "_amount",
          "type": "uint256"
        }
      ],
      "name": "buySilver",
      "outputs": [
        {
          "internalType": "bool",
          "name": "",
          "type": "bool"
        }
      ],
      "stateMutability": "payable",
      "type": "function",
      "payable": true
    },
    {
      "inputs": [
        {
          "internalType": "uint256",
          "name": "_amount",
          "type": "uint256"
        }
      ],
      "name": "buyGold",
      "outputs": [
        {
          "internalType": "bool",
          "name": "",
          "type": "bool"
        }
      ],
      "stateMutability": "payable",
      "type": "function",
      "payable": true
    },
    {
      "inputs": [
        {
          "internalType": "address",
          "name": "_from",
          "type": "address"
        },
        {
          "internalType": "address",
          "name": "_to",
          "type": "address"
        },
        {
          "internalType": "uint256",
          "name": "_tokenId",
          "type": "uint256"
        },
        {
          "internalType": "uint256",
          "name": "_coinId",
          "type": "uint256"
        },
        {
          "internalType": "uint256",
          "name": "_amount",
          "type": "uint256"
        }
      ],
      "name": "buyToken",
      "outputs": [
        {
          "internalType": "bool",
          "name": "",
          "type": "bool"
        }
      ],
      "stateMutability": "nonpayable",
      "type": "function"
    },
    {
      "inputs": [],
      "name": "contractBalance",
      "outputs": [
        {
          "internalType": "uint256",
          "name": "",
          "type": "uint256"
        }
      ],
      "stateMutability": "view",
      "type": "function",
      "constant": true
    },
    {
      "inputs": [],
      "name": "getTokenIds",
      "outputs": [
        {
          "internalType": "uint256[]",
          "name": "",
          "type": "uint256[]"
        }
      ],
      "stateMutability": "view",
      "type": "function",
      "constant": true
    },
    {
      "inputs": [
        {
          "internalType": "address",
          "name": "_owner",
          "type": "address"
        }
      ],
      "name": "getOwnerTokenIds",
      "outputs": [
        {
          "internalType": "uint256[]",
          "name": "",
          "type": "uint256[]"
        }
      ],
      "stateMutability": "view",
      "type": "function",
      "constant": true
    },
    {
      "inputs": [
        {
          "internalType": "uint256",
          "name": "_tokenId",
          "type": "uint256"
        }
      ],
      "name": "getTokenInfo",
      "outputs": [
        {
          "internalType": "address",
          "name": "owner",
          "type": "address"
        },
        {
          "internalType": "string",
          "name": "uri",
          "type": "string"
        }
      ],
      "stateMutability": "view",
      "type": "function",
      "constant": true
    }
  ],
  "bytecode": "0x60806040523480156200001157600080fd5b506040518060200160405280600081525062000033816200003a60201b60201c565b506200016a565b80600290805190602001906200005292919062000056565b5050565b828054620000649062000135565b90600052602060002090601f016020900481019282620000885760008555620000d4565b82601f10620000a357805160ff1916838001178555620000d4565b82800160010185558215620000d4579182015b82811115620000d3578251825591602001919060010190620000b6565b5b509050620000e39190620000e7565b5090565b5b8082111562000102576000816000905550600101620000e8565b5090565b7f4e487b7100000000000000000000000000000000000000000000000000000000600052602260045260246000fd5b600060028204905060018216806200014e57607f821691505b60208210810362000164576200016362000106565b5b50919050565b6134c9806200017a6000396000f3fe6080604052600436106101135760003560e01c8063762696b6116100a0578063e3e55f0811610064578063e3e55f08146103f7578063e66b600014610422578063e985e9c51461045f578063f242432a1461049c578063f80860b3146104c557610113565b8063762696b6146103055780638b7afe2e146103355780638c7a63ae14610360578063960256b61461039e578063a22cb465146103ce57610113565b80632eb2c2d6116100e75780632eb2c2d61461020c5780633e4bee38146102355780634e1273f41461026057806367f718a91461029d5780636e8ebbfa146102c857610113565b8062fdd58e1461011857806301ffc9a7146101555780630e89341c146101925780632b54c3ce146101cf575b600080fd5b34801561012457600080fd5b5061013f600480360381019061013a9190611ffb565b610502565b60405161014c919061204a565b60405180910390f35b34801561016157600080fd5b5061017c600480360381019061017791906120bd565b6105ca565b6040516101899190612105565b60405180910390f35b34801561019e57600080fd5b506101b960048036038101906101b49190612120565b6106ac565b6040516101c691906121e6565b60405180910390f35b3480156101db57600080fd5b506101f660048036038101906101f1919061233d565b610751565b6040516102039190612105565b60405180910390f35b34801561021857600080fd5b50610233600480360381019061022e9190612502565b610864565b005b34801561024157600080fd5b5061024a610905565b604051610257919061204a565b60405180910390f35b34801561026c57600080fd5b5061028760048036038101906102829190612694565b61090a565b60405161029491906127ca565b60405180910390f35b3480156102a957600080fd5b506102b2610a23565b6040516102bf91906127ca565b60405180910390f35b3480156102d457600080fd5b506102ef60048036038101906102ea9190612120565b610a7b565b6040516102fc919061204a565b60405180910390f35b61031f600480360381019061031a9190612120565b610a9f565b60405161032c9190612105565b60405180910390f35b34801561034157600080fd5b5061034a610ac6565b604051610357919061204a565b60405180910390f35b34801561036c57600080fd5b5061038760048036038101906103829190612120565b610ae5565b6040516103959291906127fb565b60405180910390f35b6103b860048036038101906103b39190612120565b610bc2565b6040516103c59190612105565b60405180910390f35b3480156103da57600080fd5b506103f560048036038101906103f09190612857565b610be9565b005b34801561040357600080fd5b5061040c610bff565b604051610419919061204a565b60405180910390f35b34801561042e57600080fd5b5061044960048036038101906104449190612897565b610c04565b60405161045691906127ca565b60405180910390f35b34801561046b57600080fd5b50610486600480360381019061048191906128c4565b610c9b565b6040516104939190612105565b60405180910390f35b3480156104a857600080fd5b506104c360048036038101906104be9190612904565b610d2f565b005b3480156104d157600080fd5b506104ec60048036038101906104e7919061299b565b610dd0565b6040516104f99190612105565b60405180910390f35b60008073ffffffffffffffffffffffffffffffffffffffff168373ffffffffffffffffffffffffffffffffffffffff1603610572576040517f08c379a000000000000000000000000000000000000000000000000000000000815260040161056990612a88565b60405180910390fd5b60008083815260200190815260200160002060008473ffffffffffffffffffffffffffffffffffffffff1673ffffffffffffffffffffffffffffffffffffffff16815260200190815260200160002054905092915050565b60007fd9b67a26000000000000000000000000000000000000000000000000000000007bffffffffffffffffffffffffffffffffffffffffffffffffffffffff1916827bffffffffffffffffffffffffffffffffffffffffffffffffffffffff1916148061069557507f0e89341c000000000000000000000000000000000000000000000000000000007bffffffffffffffffffffffffffffffffffffffffffffffffffffffff1916827bffffffffffffffffffffffffffffffffffffffffffffffffffffffff1916145b806106a557506106a4826110df565b5b9050919050565b60606005600083815260200190815260200160002080546106cc90612ad7565b80601f01602080910402602001604051908101604052809291908181526020018280546106f890612ad7565b80156107455780601f1061071a57610100808354040283529160200191610745565b820191906000526020600020905b81548152906001019060200180831161072857829003601f168201915b50505050509050919050565b600061076f3384600160405180602001604052806000815250611149565b6003839080600181540180825580915050600190039060005260206000200160009091909190915055336004600085815260200190815260200160002060006101000a81548173ffffffffffffffffffffffffffffffffffffffff021916908373ffffffffffffffffffffffffffffffffffffffff160217905550600660003373ffffffffffffffffffffffffffffffffffffffff1673ffffffffffffffffffffffffffffffffffffffff16815260200190815260200160002083908060018154018082558091505060019003906000526020600020016000909190919091505561085a83836112f9565b6001905092915050565b61086c611325565b73ffffffffffffffffffffffffffffffffffffffff168573ffffffffffffffffffffffffffffffffffffffff1614806108b257506108b1856108ac611325565b610c9b565b5b6108f1576040517f08c379a00000000000000000000000000000000000000000000000000000000081526004016108e890612b7a565b60405180910390fd5b6108fe858585858561132d565b5050505050565b600081565b60608151835114610950576040517f08c379a000000000000000000000000000000000000000000000000000000000815260040161094790612c0c565b60405180910390fd5b6000835167ffffffffffffffff81111561096d5761096c612212565b5b60405190808252806020026020018201604052801561099b5781602001602082028036833780820191505090505b50905060005b8451811015610a18576109e88582815181106109c0576109bf612c2c565b5b60200260200101518583815181106109db576109da612c2c565b5b6020026020010151610502565b8282815181106109fb576109fa612c2c565b5b60200260200101818152505080610a1190612c8a565b90506109a1565b508091505092915050565b60606003805480602002602001604051908101604052809291908181526020018280548015610a7157602002820191906000526020600020905b815481526020019060010190808311610a5d575b5050505050905090565b60038181548110610a8b57600080fd5b906000526020600020016000915090505481565b6000610abd3360018460405180602001604052806000815250611149565b60019050919050565b60003073ffffffffffffffffffffffffffffffffffffffff1631905090565b600060606004600084815260200190815260200160002060009054906101000a900473ffffffffffffffffffffffffffffffffffffffff169150600560008481526020019081526020016000208054610b3d90612ad7565b80601f0160208091040260200160405190810160405280929190818152602001828054610b6990612ad7565b8015610bb65780601f10610b8b57610100808354040283529160200191610bb6565b820191906000526020600020905b815481529060010190602001808311610b9957829003601f168201915b50505050509050915091565b6000610be03360008460405180602001604052806000815250611149565b60019050919050565b610bfb610bf4611325565b838361164e565b5050565b600181565b6060600660008373ffffffffffffffffffffffffffffffffffffffff1673ffffffffffffffffffffffffffffffffffffffff168152602001908152602001600020805480602002602001604051908101604052809291908181526020018280548015610c8f57602002820191906000526020600020905b815481526020019060010190808311610c7b575b50505050509050919050565b6000600160008473ffffffffffffffffffffffffffffffffffffffff1673ffffffffffffffffffffffffffffffffffffffff16815260200190815260200160002060008373ffffffffffffffffffffffffffffffffffffffff1673ffffffffffffffffffffffffffffffffffffffff16815260200190815260200160002060009054906101000a900460ff16905092915050565b610d37611325565b73ffffffffffffffffffffffffffffffffffffffff168573ffffffffffffffffffffffffffffffffffffffff161480610d7d5750610d7c85610d77611325565b610c9b565b5b610dbc576040517f08c379a0000000000000000000000000000000000000000000000000000000008152600401610db390612d44565b60405180910390fd5b610dc985858585856117ba565b5050505050565b6000610def8686866001604051806020016040528060008152506117ba565b846004600086815260200190815260200160002060006101000a81548173ffffffffffffffffffffffffffffffffffffffff021916908373ffffffffffffffffffffffffffffffffffffffff160217905550600660008673ffffffffffffffffffffffffffffffffffffffff1673ffffffffffffffffffffffffffffffffffffffff16815260200190815260200160002084908060018154018082558091505060019003906000526020600020016000909190919091505560005b84600660008973ffffffffffffffffffffffffffffffffffffffff1673ffffffffffffffffffffffffffffffffffffffff1681526020019081526020016000208281548110610efc57610efb612c2c565b5b906000526020600020015414610f1f578080610f1790612c8a565b915050610eaa565b5b6001600660008973ffffffffffffffffffffffffffffffffffffffff1673ffffffffffffffffffffffffffffffffffffffff16815260200190815260200160002080549050610f6f9190612d64565b81101561105057600660008873ffffffffffffffffffffffffffffffffffffffff1673ffffffffffffffffffffffffffffffffffffffff168152602001908152602001600020600182610fc29190612d98565b81548110610fd357610fd2612c2c565b5b9060005260206000200154600660008973ffffffffffffffffffffffffffffffffffffffff1673ffffffffffffffffffffffffffffffffffffffff168152602001908152602001600020828154811061102f5761102e612c2c565b5b9060005260206000200181905550808061104890612c8a565b915050610f20565b600660008873ffffffffffffffffffffffffffffffffffffffff1673ffffffffffffffffffffffffffffffffffffffff16815260200190815260200160002080548061109f5761109e612dee565b5b600190038181906000526020600020016000905590556110d186888686604051806020016040528060008152506117ba565b600191505095945050505050565b60007f01ffc9a7000000000000000000000000000000000000000000000000000000007bffffffffffffffffffffffffffffffffffffffffffffffffffffffff1916827bffffffffffffffffffffffffffffffffffffffffffffffffffffffff1916149050919050565b600073ffffffffffffffffffffffffffffffffffffffff168473ffffffffffffffffffffffffffffffffffffffff16036111b8576040517f08c379a00000000000000000000000000000000000000000000000000000000081526004016111af90612e8f565b60405180910390fd5b60006111c2611325565b905060006111cf85611a55565b905060006111dc85611a55565b90506111ed83600089858589611acf565b8460008088815260200190815260200160002060008973ffffffffffffffffffffffffffffffffffffffff1673ffffffffffffffffffffffffffffffffffffffff168152602001908152602001600020600082825461124c9190612d98565b925050819055508673ffffffffffffffffffffffffffffffffffffffff16600073ffffffffffffffffffffffffffffffffffffffff168473ffffffffffffffffffffffffffffffffffffffff167fc3d58168c5ae7397731d063d5bbf3d657854427343f4c083240f7aacaa2d0f6289896040516112ca929190612eaf565b60405180910390a46112e183600089858589611ad7565b6112f083600089898989611adf565b50505050505050565b80600560008481526020019081526020016000209080519060200190611320929190611eb0565b505050565b600033905090565b8151835114611371576040517f08c379a000000000000000000000000000000000000000000000000000000000815260040161136890612f4a565b60405180910390fd5b600073ffffffffffffffffffffffffffffffffffffffff168473ffffffffffffffffffffffffffffffffffffffff16036113e0576040517f08c379a00000000000000000000000000000000000000000000000000000000081526004016113d790612fdc565b60405180910390fd5b60006113ea611325565b90506113fa818787878787611acf565b60005b84518110156115ab57600085828151811061141b5761141a612c2c565b5b60200260200101519050600085838151811061143a57611439612c2c565b5b60200260200101519050600080600084815260200190815260200160002060008b73ffffffffffffffffffffffffffffffffffffffff1673ffffffffffffffffffffffffffffffffffffffff168152602001908152602001600020549050818110156114db576040517f08c379a00000000000000000000000000000000000000000000000000000000081526004016114d29061306e565b60405180910390fd5b81810360008085815260200190815260200160002060008c73ffffffffffffffffffffffffffffffffffffffff1673ffffffffffffffffffffffffffffffffffffffff168152602001908152602001600020819055508160008085815260200190815260200160002060008b73ffffffffffffffffffffffffffffffffffffffff1673ffffffffffffffffffffffffffffffffffffffff16815260200190815260200160002060008282546115909190612d98565b92505081905550505050806115a490612c8a565b90506113fd565b508473ffffffffffffffffffffffffffffffffffffffff168673ffffffffffffffffffffffffffffffffffffffff168273ffffffffffffffffffffffffffffffffffffffff167f4a39dc06d4c0dbc64b70af90fd698a233a518aa5d07e595d983b8c0526c8f7fb878760405161162292919061308e565b60405180910390a4611638818787878787611ad7565b611646818787878787611cb6565b505050505050565b8173ffffffffffffffffffffffffffffffffffffffff168373ffffffffffffffffffffffffffffffffffffffff16036116bc576040517f08c379a00000000000000000000000000000000000000000000000000000000081526004016116b390613137565b60405180910390fd5b80600160008573ffffffffffffffffffffffffffffffffffffffff1673ffffffffffffffffffffffffffffffffffffffff16815260200190815260200160002060008473ffffffffffffffffffffffffffffffffffffffff1673ffffffffffffffffffffffffffffffffffffffff16815260200190815260200160002060006101000a81548160ff0219169083151502179055508173ffffffffffffffffffffffffffffffffffffffff168373ffffffffffffffffffffffffffffffffffffffff167f17307eab39ab6107e8899845ad3d59bd9653f200f220920489ca2b5937696c31836040516117ad9190612105565b60405180910390a3505050565b600073ffffffffffffffffffffffffffffffffffffffff168473ffffffffffffffffffffffffffffffffffffffff1603611829576040517f08c379a000000000000000000000000000000000000000000000000000000000815260040161182090612fdc565b60405180910390fd5b6000611833611325565b9050600061184085611a55565b9050600061184d85611a55565b905061185d838989858589611acf565b600080600088815260200190815260200160002060008a73ffffffffffffffffffffffffffffffffffffffff1673ffffffffffffffffffffffffffffffffffffffff168152602001908152602001600020549050858110156118f4576040517f08c379a00000000000000000000000000000000000000000000000000000000081526004016118eb9061306e565b60405180910390fd5b85810360008089815260200190815260200160002060008b73ffffffffffffffffffffffffffffffffffffffff1673ffffffffffffffffffffffffffffffffffffffff168152602001908152602001600020819055508560008089815260200190815260200160002060008a73ffffffffffffffffffffffffffffffffffffffff1673ffffffffffffffffffffffffffffffffffffffff16815260200190815260200160002060008282546119a99190612d98565b925050819055508773ffffffffffffffffffffffffffffffffffffffff168973ffffffffffffffffffffffffffffffffffffffff168573ffffffffffffffffffffffffffffffffffffffff167fc3d58168c5ae7397731d063d5bbf3d657854427343f4c083240f7aacaa2d0f628a8a604051611a26929190612eaf565b60405180910390a4611a3c848a8a86868a611ad7565b611a4a848a8a8a8a8a611adf565b505050505050505050565b60606000600167ffffffffffffffff811115611a7457611a73612212565b5b604051908082528060200260200182016040528015611aa25781602001602082028036833780820191505090505b5090508281600081518110611aba57611ab9612c2c565b5b60200260200101818152505080915050919050565b505050505050565b505050505050565b611afe8473ffffffffffffffffffffffffffffffffffffffff16611e8d565b15611cae578373ffffffffffffffffffffffffffffffffffffffff1663f23a6e6187878686866040518663ffffffff1660e01b8152600401611b449594939291906131ac565b6020604051808303816000875af1925050508015611b8057506040513d601f19601f82011682018060405250810190611b7d919061321b565b60015b611c2557611b8c613255565b806308c379a003611be85750611ba0613277565b80611bab5750611bea565b806040517f08c379a0000000000000000000000000000000000000000000000000000000008152600401611bdf91906121e6565b60405180910390fd5b505b6040517f08c379a0000000000000000000000000000000000000000000000000000000008152600401611c1c90613379565b60405180910390fd5b63f23a6e6160e01b7bffffffffffffffffffffffffffffffffffffffffffffffffffffffff1916817bffffffffffffffffffffffffffffffffffffffffffffffffffffffff191614611cac576040517f08c379a0000000000000000000000000000000000000000000000000000000008152600401611ca39061340b565b60405180910390fd5b505b505050505050565b611cd58473ffffffffffffffffffffffffffffffffffffffff16611e8d565b15611e85578373ffffffffffffffffffffffffffffffffffffffff1663bc197c8187878686866040518663ffffffff1660e01b8152600401611d1b95949392919061342b565b6020604051808303816000875af1925050508015611d5757506040513d601f19601f82011682018060405250810190611d54919061321b565b60015b611dfc57611d63613255565b806308c379a003611dbf5750611d77613277565b80611d825750611dc1565b806040517f08c379a0000000000000000000000000000000000000000000000000000000008152600401611db691906121e6565b60405180910390fd5b505b6040517f08c379a0000000000000000000000000000000000000000000000000000000008152600401611df390613379565b60405180910390fd5b63bc197c8160e01b7bffffffffffffffffffffffffffffffffffffffffffffffffffffffff1916817bffffffffffffffffffffffffffffffffffffffffffffffffffffffff191614611e83576040517f08c379a0000000000000000000000000000000000000000000000000000000008152600401611e7a9061340b565b60405180910390fd5b505b505050505050565b6000808273ffffffffffffffffffffffffffffffffffffffff163b119050919050565b828054611ebc90612ad7565b90600052602060002090601f016020900481019282611ede5760008555611f25565b82601f10611ef757805160ff1916838001178555611f25565b82800160010185558215611f25579182015b82811115611f24578251825591602001919060010190611f09565b5b509050611f329190611f36565b5090565b5b80821115611f4f576000816000905550600101611f37565b5090565b6000604051905090565b600080fd5b600080fd5b600073ffffffffffffffffffffffffffffffffffffffff82169050919050565b6000611f9282611f67565b9050919050565b611fa281611f87565b8114611fad57600080fd5b50565b600081359050611fbf81611f99565b92915050565b6000819050919050565b611fd881611fc5565b8114611fe357600080fd5b50565b600081359050611ff581611fcf565b92915050565b6000806040838503121561201257612011611f5d565b5b600061202085828601611fb0565b925050602061203185828601611fe6565b9150509250929050565b61204481611fc5565b82525050565b600060208201905061205f600083018461203b565b92915050565b60007fffffffff0000000000000000000000000000000000000000000000000000000082169050919050565b61209a81612065565b81146120a557600080fd5b50565b6000813590506120b781612091565b92915050565b6000602082840312156120d3576120d2611f5d565b5b60006120e1848285016120a8565b91505092915050565b60008115159050919050565b6120ff816120ea565b82525050565b600060208201905061211a60008301846120f6565b92915050565b60006020828403121561213657612135611f5d565b5b600061214484828501611fe6565b91505092915050565b600081519050919050565b600082825260208201905092915050565b60005b8381101561218757808201518184015260208101905061216c565b83811115612196576000848401525b50505050565b6000601f19601f8301169050919050565b60006121b88261214d565b6121c28185612158565b93506121d2818560208601612169565b6121db8161219c565b840191505092915050565b6000602082019050818103600083015261220081846121ad565b905092915050565b600080fd5b600080fd5b7f4e487b7100000000000000000000000000000000000000000000000000000000600052604160045260246000fd5b61224a8261219c565b810181811067ffffffffffffffff8211171561226957612268612212565b5b80604052505050565b600061227c611f53565b90506122888282612241565b919050565b600067ffffffffffffffff8211156122a8576122a7612212565b5b6122b18261219c565b9050602081019050919050565b82818337600083830152505050565b60006122e06122db8461228d565b612272565b9050828152602081018484840111156122fc576122fb61220d565b5b6123078482856122be565b509392505050565b600082601f83011261232457612323612208565b5b81356123348482602086016122cd565b91505092915050565b6000806040838503121561235457612353611f5d565b5b600061236285828601611fe6565b925050602083013567ffffffffffffffff81111561238357612382611f62565b5b61238f8582860161230f565b9150509250929050565b600067ffffffffffffffff8211156123b4576123b3612212565b5b602082029050602081019050919050565b600080fd5b60006123dd6123d884612399565b612272565b90508083825260208201905060208402830185811115612400576123ff6123c5565b5b835b8181101561242957806124158882611fe6565b845260208401935050602081019050612402565b5050509392505050565b600082601f83011261244857612447612208565b5b81356124588482602086016123ca565b91505092915050565b600067ffffffffffffffff82111561247c5761247b612212565b5b6124858261219c565b9050602081019050919050565b60006124a56124a084612461565b612272565b9050828152602081018484840111156124c1576124c061220d565b5b6124cc8482856122be565b509392505050565b600082601f8301126124e9576124e8612208565b5b81356124f9848260208601612492565b91505092915050565b600080600080600060a0868803121561251e5761251d611f5d565b5b600061252c88828901611fb0565b955050602061253d88828901611fb0565b945050604086013567ffffffffffffffff81111561255e5761255d611f62565b5b61256a88828901612433565b935050606086013567ffffffffffffffff81111561258b5761258a611f62565b5b61259788828901612433565b925050608086013567ffffffffffffffff8111156125b8576125b7611f62565b5b6125c4888289016124d4565b9150509295509295909350565b600067ffffffffffffffff8211156125ec576125eb612212565b5b602082029050602081019050919050565b600061261061260b846125d1565b612272565b90508083825260208201905060208402830185811115612633576126326123c5565b5b835b8181101561265c57806126488882611fb0565b845260208401935050602081019050612635565b5050509392505050565b600082601f83011261267b5761267a612208565b5b813561268b8482602086016125fd565b91505092915050565b600080604083850312156126ab576126aa611f5d565b5b600083013567ffffffffffffffff8111156126c9576126c8611f62565b5b6126d585828601612666565b925050602083013567ffffffffffffffff8111156126f6576126f5611f62565b5b61270285828601612433565b9150509250929050565b600081519050919050565b600082825260208201905092915050565b6000819050602082019050919050565b61274181611fc5565b82525050565b60006127538383612738565b60208301905092915050565b6000602082019050919050565b60006127778261270c565b6127818185612717565b935061278c83612728565b8060005b838110156127bd5781516127a48882612747565b97506127af8361275f565b925050600181019050612790565b5085935050505092915050565b600060208201905081810360008301526127e4818461276c565b905092915050565b6127f581611f87565b82525050565b600060408201905061281060008301856127ec565b818103602083015261282281846121ad565b90509392505050565b612834816120ea565b811461283f57600080fd5b50565b6000813590506128518161282b565b92915050565b6000806040838503121561286e5761286d611f5d565b5b600061287c85828601611fb0565b925050602061288d85828601612842565b9150509250929050565b6000602082840312156128ad576128ac611f5d565b5b60006128bb84828501611fb0565b91505092915050565b600080604083850312156128db576128da611f5d565b5b60006128e985828601611fb0565b92505060206128fa85828601611fb0565b9150509250929050565b600080600080600060a086880312156129205761291f611f5d565b5b600061292e88828901611fb0565b955050602061293f88828901611fb0565b945050604061295088828901611fe6565b935050606061296188828901611fe6565b925050608086013567ffffffffffffffff81111561298257612981611f62565b5b61298e888289016124d4565b9150509295509295909350565b600080600080600060a086880312156129b7576129b6611f5d565b5b60006129c588828901611fb0565b95505060206129d688828901611fb0565b94505060406129e788828901611fe6565b93505060606129f888828901611fe6565b9250506080612a0988828901611fe6565b9150509295509295909350565b7f455243313135353a2062616c616e636520717565727920666f7220746865207a60008201527f65726f2061646472657373000000000000000000000000000000000000000000602082015250565b6000612a72602b83612158565b9150612a7d82612a16565b604082019050919050565b60006020820190508181036000830152612aa181612a65565b9050919050565b7f4e487b7100000000000000000000000000000000000000000000000000000000600052602260045260246000fd5b60006002820490506001821680612aef57607f821691505b602082108103612b0257612b01612aa8565b5b50919050565b7f455243313135353a207472616e736665722063616c6c6572206973206e6f742060008201527f6f776e6572206e6f7220617070726f7665640000000000000000000000000000602082015250565b6000612b64603283612158565b9150612b6f82612b08565b604082019050919050565b60006020820190508181036000830152612b9381612b57565b9050919050565b7f455243313135353a206163636f756e747320616e6420696473206c656e67746860008201527f206d69736d617463680000000000000000000000000000000000000000000000602082015250565b6000612bf6602983612158565b9150612c0182612b9a565b604082019050919050565b60006020820190508181036000830152612c2581612be9565b9050919050565b7f4e487b7100000000000000000000000000000000000000000000000000000000600052603260045260246000fd5b7f4e487b7100000000000000000000000000000000000000000000000000000000600052601160045260246000fd5b6000612c9582611fc5565b91507fffffffffffffffffffffffffffffffffffffffffffffffffffffffffffffffff8203612cc757612cc6612c5b565b5b600182019050919050565b7f455243313135353a2063616c6c6572206973206e6f74206f776e6572206e6f7260008201527f20617070726f7665640000000000000000000000000000000000000000000000602082015250565b6000612d2e602983612158565b9150612d3982612cd2565b604082019050919050565b60006020820190508181036000830152612d5d81612d21565b9050919050565b6000612d6f82611fc5565b9150612d7a83611fc5565b925082821015612d8d57612d8c612c5b565b5b828203905092915050565b6000612da382611fc5565b9150612dae83611fc5565b9250827fffffffffffffffffffffffffffffffffffffffffffffffffffffffffffffffff03821115612de357612de2612c5b565b5b828201905092915050565b7f4e487b7100000000000000000000000000000000000000000000000000000000600052603160045260246000fd5b7f455243313135353a206d696e7420746f20746865207a65726f2061646472657360008201527f7300000000000000000000000000000000000000000000000000000000000000602082015250565b6000612e79602183612158565b9150612e8482612e1d565b604082019050919050565b60006020820190508181036000830152612ea881612e6c565b9050919050565b6000604082019050612ec4600083018561203b565b612ed1602083018461203b565b9392505050565b7f455243313135353a2069647320616e6420616d6f756e7473206c656e6774682060008201527f6d69736d61746368000000000000000000000000000000000000000000000000602082015250565b6000612f34602883612158565b9150612f3f82612ed8565b604082019050919050565b60006020820190508181036000830152612f6381612f27565b9050919050565b7f455243313135353a207472616e7366657220746f20746865207a65726f20616460008201527f6472657373000000000000000000000000000000000000000000000000000000602082015250565b6000612fc6602583612158565b9150612fd182612f6a565b604082019050919050565b60006020820190508181036000830152612ff581612fb9565b9050919050565b7f455243313135353a20696e73756666696369656e742062616c616e636520666f60008201527f72207472616e7366657200000000000000000000000000000000000000000000602082015250565b6000613058602a83612158565b915061306382612ffc565b604082019050919050565b600060208201905081810360008301526130878161304b565b9050919050565b600060408201905081810360008301526130a8818561276c565b905081810360208301526130bc818461276c565b90509392505050565b7f455243313135353a2073657474696e6720617070726f76616c2073746174757360008201527f20666f722073656c660000000000000000000000000000000000000000000000602082015250565b6000613121602983612158565b915061312c826130c5565b604082019050919050565b6000602082019050818103600083015261315081613114565b9050919050565b600081519050919050565b600082825260208201905092915050565b600061317e82613157565b6131888185613162565b9350613198818560208601612169565b6131a18161219c565b840191505092915050565b600060a0820190506131c160008301886127ec565b6131ce60208301876127ec565b6131db604083018661203b565b6131e8606083018561203b565b81810360808301526131fa8184613173565b90509695505050505050565b60008151905061321581612091565b92915050565b60006020828403121561323157613230611f5d565b5b600061323f84828501613206565b91505092915050565b60008160e01c9050919050565b600060033d11156132745760046000803e613271600051613248565b90505b90565b600060443d1061330457613289611f53565b60043d036004823e80513d602482011167ffffffffffffffff821117156132b1575050613304565b808201805167ffffffffffffffff8111156132cf5750505050613304565b80602083010160043d0385018111156132ec575050505050613304565b6132fb82602001850186612241565b82955050505050505b90565b7f455243313135353a207472616e7366657220746f206e6f6e204552433131353560008201527f526563656976657220696d706c656d656e746572000000000000000000000000602082015250565b6000613363603483612158565b915061336e82613307565b604082019050919050565b6000602082019050818103600083015261339281613356565b9050919050565b7f455243313135353a204552433131353552656365697665722072656a6563746560008201527f6420746f6b656e73000000000000000000000000000000000000000000000000602082015250565b60006133f5602883612158565b915061340082613399565b604082019050919050565b60006020820190508181036000830152613424816133e8565b9050919050565b600060a08201905061344060008301886127ec565b61344d60208301876127ec565b818103604083015261345f818661276c565b90508181036060830152613473818561276c565b905081810360808301526134878184613173565b9050969550505050505056fea2646970667358221220aca1b9553e26c46721a06a3269def346ed9132d31b448202e087588caa1c88f864736f6c634300080e0033",
  "immutableReferences": {},
  "source": "// SPDX-License-Identifier: MIT\npragma solidity ^0.8.1;\n\nimport \"@openzeppelin/contracts/token/ERC1155/ERC1155.sol\";\n\ncontract Coin is ERC1155 {\n  uint256 public constant GOLD = 0;\n  uint256 public constant SILVER = 1;\n  \n  uint256[] public _tokenIds;\n  mapping(uint256 => address) _tokenOwners;\n  mapping(uint256 => string) _tokenURIs;\n  mapping(address => uint[]) _ownerTokens;\n\n  constructor() ERC1155(\"\"){}\n\n  function uri(uint256 _tokenId) public view override returns (string memory) {\n    return _tokenURIs[_tokenId];\n  }\n\n  function addToken(uint256 _tokenId, string memory _uri) public returns(bool){\n    _mint(msg.sender, _tokenId, 1, \"\");\n    _tokenIds.push(_tokenId);\n    _tokenOwners[_tokenId] = msg.sender;\n    _ownerTokens[msg.sender].push(_tokenId);\n    _setURI(_tokenId, _uri);\n    return true;\n  }\n\n  function _setURI(uint256 _tokenId, string memory _uri) internal{\n    _tokenURIs[_tokenId] = _uri;\n  }\n\n  function buySilver(uint256 _amount) public payable returns(bool){\n    _mint(msg.sender, SILVER, _amount, \"\");\n    return true;\n  }\n\n  function buyGold(uint256 _amount) public payable returns(bool){\n    _mint(msg.sender, GOLD, _amount, \"\");\n    return true;\n  }\n\n  function buyToken(address _from, address _to, uint256 _tokenId, uint256 _coinId, uint256 _amount) public returns(bool){\n    _safeTransferFrom(_from, _to, _tokenId, 1, \"\");\n    _tokenOwners[_tokenId] = _to;\n    _ownerTokens[_to].push(_tokenId);\n    \n    //Removing token from previous owner owned tokenIds array\n    uint i = 0;\n    while (_ownerTokens[_from][i] != _tokenId) {\n        i++;\n    }\n    while (i < _ownerTokens[_from].length - 1) {\n      _ownerTokens[_from][i] = _ownerTokens[_from][i + 1];\n      i++;\n    }\n    _ownerTokens[_from].pop();\n\n    _safeTransferFrom(_to, _from, _coinId, _amount, \"\");\n    return true;\n  }\n\n  function contractBalance() public view returns(uint256){\n    return address(this).balance;\n  }\n\n  function getTokenIds() public view returns(uint256[] memory){\n    return _tokenIds;\n  }\n\n  function getOwnerTokenIds(address _owner) public view returns(uint256[] memory){\n    return _ownerTokens[_owner];\n  }\n\n  function getTokenInfo(uint256 _tokenId) public view returns(address owner, string memory uri){\n    owner = _tokenOwners[_tokenId];\n    uri = _tokenURIs[_tokenId];\n  }\n\n}",
  "sourcePath": "/home/lakshya/Desktop/Projects/Blockchain/CryptoNFTs/crypto_nfts/smart-contract/contracts/Coin.sol",
  "compiler": {
    "name": "solc",
    "version": "0.8.14+commit.80d49f37.Emscripten.clang"
  },
  "schemaVersion": "3.4.4",
  "updatedAt": "2022-05-29T16:00:18.316Z",
  "networkType": "ethereum",
  "devdoc": {
    "kind": "dev",
    "methods": {
      "balanceOf(address,uint256)": {
        "details": "See {IERC1155-balanceOf}. Requirements: - `account` cannot be the zero address."
      },
      "balanceOfBatch(address[],uint256[])": {
        "details": "See {IERC1155-balanceOfBatch}. Requirements: - `accounts` and `ids` must have the same length."
      },
      "isApprovedForAll(address,address)": {
        "details": "See {IERC1155-isApprovedForAll}."
      },
      "safeBatchTransferFrom(address,address,uint256[],uint256[],bytes)": {
        "details": "See {IERC1155-safeBatchTransferFrom}."
      },
      "safeTransferFrom(address,address,uint256,uint256,bytes)": {
        "details": "See {IERC1155-safeTransferFrom}."
      },
      "setApprovalForAll(address,bool)": {
        "details": "See {IERC1155-setApprovalForAll}."
      },
      "supportsInterface(bytes4)": {
        "details": "See {IERC165-supportsInterface}."
      }
    },
    "version": 1
  },
  "userdoc": {
    "kind": "user",
    "methods": {},
    "version": 1
  }
}